{
  "contractName": "TicTacToe",
  "abi": [
    {
      "constant": true,
      "inputs": [],
      "name": "playerTwo",
      "outputs": [
        {
          "name": "",
          "type": "address"
        }
      ],
      "payable": false,
      "stateMutability": "view",
      "type": "function"
    },
    {
      "constant": true,
      "inputs": [
        {
          "name": "",
          "type": "uint256"
        },
        {
          "name": "",
          "type": "uint256"
        }
      ],
      "name": "board",
      "outputs": [
        {
          "name": "",
          "type": "uint256"
        }
      ],
      "payable": false,
      "stateMutability": "view",
      "type": "function"
    },
    {
      "constant": true,
      "inputs": [],
      "name": "turn",
      "outputs": [
        {
          "name": "",
          "type": "bool"
        }
      ],
      "payable": false,
      "stateMutability": "view",
      "type": "function"
    },
    {
      "constant": true,
      "inputs": [],
      "name": "playerOne",
      "outputs": [
        {
          "name": "",
          "type": "address"
        }
      ],
      "payable": false,
      "stateMutability": "view",
      "type": "function"
    },
    {
      "inputs": [
        {
          "name": "_playerTwo",
          "type": "address"
        }
      ],
      "payable": false,
      "stateMutability": "nonpayable",
      "type": "constructor"
    },
    {
      "anonymous": false,
      "inputs": [
        {
          "indexed": true,
          "name": "player",
          "type": "address"
        },
        {
          "indexed": false,
          "name": "row",
          "type": "uint256"
        },
        {
          "indexed": false,
          "name": "column",
          "type": "uint256"
        }
      ],
      "name": "Played",
      "type": "event"
    },
    {
      "constant": true,
      "inputs": [
        {
          "name": "_player",
          "type": "address"
        }
      ],
      "name": "isPlayerRegistered",
      "outputs": [
        {
          "name": "",
          "type": "bool"
        }
      ],
      "payable": false,
      "stateMutability": "view",
      "type": "function"
    },
    {
      "constant": false,
      "inputs": [
        {
          "name": "row",
          "type": "uint256"
        },
        {
          "name": "column",
          "type": "uint256"
        }
      ],
      "name": "play",
      "outputs": [],
      "payable": false,
      "stateMutability": "nonpayable",
      "type": "function"
    }
  ],
  "bytecode": "0x608060405234801561001057600080fd5b5060405160208061068f83398101806040528101908080519060200190929190505050336000806101000a81548173ffffffffffffffffffffffffffffffffffffffff021916908373ffffffffffffffffffffffffffffffffffffffff16021790555080600160006101000a81548173ffffffffffffffffffffffffffffffffffffffff021916908373ffffffffffffffffffffffffffffffffffffffff16021790555060018060146101000a81548160ff021916908315150217905550506105b1806100de6000396000f300608060405260043610610078576000357c0100000000000000000000000000000000000000000000000000000000900463ffffffff1680630a9f85dd1461007d5780631417b82a146100d45780637bc49a951461012f5780638086a92a146101665780638b299903146101b1578063bcffcf41146101e0575b600080fd5b34801561008957600080fd5b50610092610237565b604051808273ffffffffffffffffffffffffffffffffffffffff1673ffffffffffffffffffffffffffffffffffffffff16815260200191505060405180910390f35b3480156100e057600080fd5b50610115600480360381019080803573ffffffffffffffffffffffffffffffffffffffff16906020019092919050505061025d565b604051808215151515815260200191505060405180910390f35b34801561013b57600080fd5b50610164600480360381019080803590602001909291908035906020019092919050505061030e565b005b34801561017257600080fd5b5061019b6004803603810190808035906020019092919080359060200190929190505050610521565b6040518082815260200191505060405180910390f35b3480156101bd57600080fd5b506101c661054d565b604051808215151515815260200191505060405180910390f35b3480156101ec57600080fd5b506101f5610560565b604051808273ffffffffffffffffffffffffffffffffffffffff1673ffffffffffffffffffffffffffffffffffffffff16815260200191505060405180910390f35b600160009054906101000a900473ffffffffffffffffffffffffffffffffffffffff1681565b60008173ffffffffffffffffffffffffffffffffffffffff166000809054906101000a900473ffffffffffffffffffffffffffffffffffffffff1673ffffffffffffffffffffffffffffffffffffffff16148061030757508173ffffffffffffffffffffffffffffffffffffffff16600160009054906101000a900473ffffffffffffffffffffffffffffffffffffffff1673ffffffffffffffffffffffffffffffffffffffff16145b9050919050565b6103173361025d565b151561032257600080fd5b6000809054906101000a900473ffffffffffffffffffffffffffffffffffffffff1673ffffffffffffffffffffffffffffffffffffffff163373ffffffffffffffffffffffffffffffffffffffff16141561039e5760001515600160149054906101000a900460ff16151514151561039957600080fd5b6103c1565b60011515600160149054906101000a900460ff1615151415156103c057600080fd5b5b818160006002836003811015156103d457fe5b60030201826003811015156103e557fe5b01541415156103f357600080fd5b6000809054906101000a900473ffffffffffffffffffffffffffffffffffffffff1673ffffffffffffffffffffffffffffffffffffffff163373ffffffffffffffffffffffffffffffffffffffff16141561047457600160028560038110151561045957fe5b600302018460038110151561046a57fe5b018190555061049b565b6002808560038110151561048457fe5b600302018460038110151561049557fe5b01819055505b600160149054906101000a900460ff1615600160146101000a81548160ff0219169083151502179055503373ffffffffffffffffffffffffffffffffffffffff167f51a43823cb9b46fbb22469385351c1d9fd66d31c77e922e2e89f4f579453b79d8585604051808381526020018281526020019250505060405180910390a250505050565b60028260038110151561053057fe5b600302018160038110151561054157fe5b01600091509150505481565b600160149054906101000a900460ff1681565b6000809054906101000a900473ffffffffffffffffffffffffffffffffffffffff16815600a165627a7a72305820d7759e02b59fe2ed46ae411e8a290c9a0daa6bbbe4eb3ba6ef53d21538a8ca860029",
  "source": "pragma solidity 0.4.24;\n\ncontract TicTacToe {\n\t// State\n\n\t// Address of playerOne, creator of the board\n    address public playerOne;\n\n    address public playerTwo;\n\n\t// Board turn: \n\t// - Turn = false -> PlayerOne's turn\n\t// - Turn = true -> PlayerTwo's turn\n    bool public turn;\n\n    uint[3][3] public board;\n\n\n\t// Events\n\n    event Played(address indexed player, uint row, uint column);\n\n\n\t// Modifiers\n\n    modifier onlyRegistered {\n        require(isPlayerRegistered(msg.sender));\n        _;\n    }\n\n    modifier whenPlayerTurn {\n        if (msg.sender == playerOne) {\n            require(turn == false);\n        } else {\n            require(turn == true);\n        }\n        _;\n    }\n\n\t// Ensure that board[row][column] is free\n    modifier onlyFreeSquare(uint row, uint column) {\n        require(board[row][column] == 0);\n        _;\n    }\n\n\n    constructor(address _playerTwo) public {\n        playerOne = msg.sender;\n        playerTwo = _playerTwo;\n        turn = true;\n    }\n\n    function isPlayerRegistered (address _player) public view returns (bool) {\n        return playerOne == _player || playerTwo == _player;\n    }\n\t\n    function play (uint row, uint column) public onlyRegistered whenPlayerTurn onlyFreeSquare(row, column) {\n        if (msg.sender == playerOne) {\n            board[row][column] = 1;\n\t    } else {\n            board[row][column] = 2;\n\t    }\n\n        turn = !turn;\n\n        emit Played(msg.sender, row, column);\n    }\n}",
  "sourcePath": "/Users/nina/tic-tac-toe/tictactoe-eth-smartcontract/contracts/TicTacToe.sol",
  "compiler": {
    "name": "solc",
    "version": "0.4.24+commit.e67f0147.Emscripten.clang"
  },
  "schemaVersion": "2.0.0",
  "updatedAt": "2018-06-18T14:02:42.399Z"
}